{
  "contractName": "kyc",
  "abi": [
    {
      "inputs": [],
      "payable": false,
      "stateMutability": "nonpayable",
      "type": "constructor"
    },
    {
      "constant": false,
      "inputs": [
        {
          "internalType": "string",
          "name": "_userName",
          "type": "string"
        },
        {
          "internalType": "string",
          "name": "_customerData",
          "type": "string"
        }
      ],
      "name": "addKycRequest",
      "outputs": [
        {
          "internalType": "uint8",
          "name": "",
          "type": "uint8"
        }
      ],
      "payable": false,
      "stateMutability": "nonpayable",
      "type": "function"
    },
    {
      "constant": false,
      "inputs": [
        {
          "internalType": "string",
          "name": "_userName",
          "type": "string"
        },
        {
          "internalType": "string",
          "name": "_customerData",
          "type": "string"
        }
      ],
      "name": "addCustomer",
      "outputs": [
        {
          "internalType": "uint8",
          "name": "",
          "type": "uint8"
        }
      ],
      "payable": false,
      "stateMutability": "nonpayable",
      "type": "function"
    },
    {
      "constant": false,
      "inputs": [
        {
          "internalType": "string",
          "name": "_userName",
          "type": "string"
        }
      ],
      "name": "removeKYCRequest",
      "outputs": [
        {
          "internalType": "uint8",
          "name": "",
          "type": "uint8"
        }
      ],
      "payable": false,
      "stateMutability": "nonpayable",
      "type": "function"
    },
    {
      "constant": false,
      "inputs": [
        {
          "internalType": "string",
          "name": "_userName",
          "type": "string"
        }
      ],
      "name": "removeCustomer",
      "outputs": [
        {
          "internalType": "uint8",
          "name": "",
          "type": "uint8"
        }
      ],
      "payable": false,
      "stateMutability": "nonpayable",
      "type": "function"
    },
    {
      "constant": false,
      "inputs": [
        {
          "internalType": "string",
          "name": "_userName",
          "type": "string"
        },
        {
          "internalType": "string",
          "name": "_newcustomerData",
          "type": "string"
        }
      ],
      "name": "modifyCustomer",
      "outputs": [
        {
          "internalType": "uint8",
          "name": "",
          "type": "uint8"
        }
      ],
      "payable": false,
      "stateMutability": "nonpayable",
      "type": "function"
    },
    {
      "constant": true,
      "inputs": [
        {
          "internalType": "string",
          "name": "_userName",
          "type": "string"
        },
        {
          "internalType": "string",
          "name": "_password",
          "type": "string"
        }
      ],
      "name": "viewCustomer",
      "outputs": [
        {
          "internalType": "string",
          "name": "",
          "type": "string"
        },
        {
          "internalType": "string",
          "name": "",
          "type": "string"
        },
        {
          "internalType": "uint8",
          "name": "",
          "type": "uint8"
        },
        {
          "internalType": "address",
          "name": "",
          "type": "address"
        }
      ],
      "payable": false,
      "stateMutability": "view",
      "type": "function"
    },
    {
      "constant": false,
      "inputs": [
        {
          "internalType": "string",
          "name": "_userName",
          "type": "string"
        }
      ],
      "name": "Upvote",
      "outputs": [
        {
          "internalType": "uint8",
          "name": "",
          "type": "uint8"
        }
      ],
      "payable": true,
      "stateMutability": "payable",
      "type": "function"
    },
    {
      "constant": false,
      "inputs": [
        {
          "internalType": "address",
          "name": "_bankAddress",
          "type": "address"
        }
      ],
      "name": "toUpvoteBank",
      "outputs": [
        {
          "internalType": "uint8",
          "name": "",
          "type": "uint8"
        }
      ],
      "payable": false,
      "stateMutability": "nonpayable",
      "type": "function"
    },
    {
      "constant": true,
      "inputs": [
        {
          "internalType": "string",
          "name": "_userName",
          "type": "string"
        }
      ],
      "name": "getCustomerRating",
      "outputs": [
        {
          "internalType": "uint256",
          "name": "",
          "type": "uint256"
        }
      ],
      "payable": false,
      "stateMutability": "view",
      "type": "function"
    },
    {
      "constant": true,
      "inputs": [
        {
          "internalType": "address",
          "name": "_bankAddress",
          "type": "address"
        }
      ],
      "name": "getBankRating",
      "outputs": [
        {
          "internalType": "uint256",
          "name": "",
          "type": "uint256"
        }
      ],
      "payable": false,
      "stateMutability": "view",
      "type": "function"
    },
    {
      "constant": true,
      "inputs": [
        {
          "internalType": "string",
          "name": "_userName",
          "type": "string"
        }
      ],
      "name": "getLastBankDetails",
      "outputs": [
        {
          "internalType": "address",
          "name": "",
          "type": "address"
        }
      ],
      "payable": false,
      "stateMutability": "view",
      "type": "function"
    },
    {
      "constant": false,
      "inputs": [
        {
          "internalType": "string",
          "name": "_userName",
          "type": "string"
        },
        {
          "internalType": "string",
          "name": "_password",
          "type": "string"
        }
      ],
      "name": "setPassword",
      "outputs": [
        {
          "internalType": "bool",
          "name": "",
          "type": "bool"
        }
      ],
      "payable": false,
      "stateMutability": "nonpayable",
      "type": "function"
    },
    {
      "constant": true,
      "inputs": [
        {
          "internalType": "address",
          "name": "_bankAddress",
          "type": "address"
        }
      ],
      "name": "getBank",
      "outputs": [
        {
          "components": [
            {
              "internalType": "address",
              "name": "ethAddress",
              "type": "address"
            },
            {
              "internalType": "string",
              "name": "bankName",
              "type": "string"
            },
            {
              "internalType": "string",
              "name": "regNumber",
              "type": "string"
            },
            {
              "internalType": "uint256",
              "name": "rating",
              "type": "uint256"
            },
            {
              "internalType": "uint8",
              "name": "KYC_count",
              "type": "uint8"
            }
          ],
          "internalType": "struct kyc.Bank",
          "name": "",
          "type": "tuple"
        }
      ],
      "payable": false,
      "stateMutability": "view",
      "type": "function"
    },
    {
      "constant": false,
      "inputs": [
        {
          "internalType": "string",
          "name": "_bankName",
          "type": "string"
        },
        {
          "internalType": "address",
          "name": "_bankAddress",
          "type": "address"
        },
        {
          "internalType": "string",
          "name": "_regNumber",
          "type": "string"
        }
      ],
      "name": "addBank",
      "outputs": [
        {
          "internalType": "bool",
          "name": "",
          "type": "bool"
        }
      ],
      "payable": false,
      "stateMutability": "nonpayable",
      "type": "function"
    },
    {
      "constant": false,
      "inputs": [
        {
          "internalType": "address",
          "name": "_bankAddress",
          "type": "address"
        }
      ],
      "name": "removeBank",
      "outputs": [
        {
          "internalType": "bool",
          "name": "",
          "type": "bool"
        }
      ],
      "payable": false,
      "stateMutability": "nonpayable",
      "type": "function"
    }
  ],
  "bytecode": "0x608060405234801561001057600080fd5b50336000806101000a81548173ffffffffffffffffffffffffffffffffffffffff021916908373ffffffffffffffffffffffffffffffffffffffff160217905550612c5b806100606000396000f3fe6080604052600436106100e85760003560e01c80639649650c1161008a578063ccfa8e7111610059578063ccfa8e7114610382578063d4a46c51146103bf578063f72860ca146103fc578063fc55ea9d14610439576100e8565b80639649650c1461028e578063a261a18e146102cb578063b8144a7214610308578063ca38649614610345576100e8565b80633190abc0116100c65780633190abc01461019a57806355286df2146101d757806383e0c31d146102145780638eafe0f014610251576100e8565b80631e8eba6e146100ed5780631f2c141a1461012a5780632ec1fbf01461016a575b600080fd5b3480156100f957600080fd5b50610114600480360361010f91908101906122d2565b610476565b6040516101219190612a8d565b60405180910390f35b34801561013657600080fd5b50610151600480360361014c9190810190612392565b61060e565b604051610161949392919061291d565b60405180910390f35b610184600480360361017f91908101906122d2565b610ab5565b6040516101919190612a8d565b60405180910390f35b3480156101a657600080fd5b506101c160048036036101bc9190810190612392565b610d5c565b6040516101ce9190612a8d565b60405180910390f35b3480156101e357600080fd5b506101fe60048036036101f991908101906122a9565b610fd2565b60405161020b9190612a8d565b60405180910390f35b34801561022057600080fd5b5061023b600480360361023691908101906122a9565b611183565b6040516102489190612a50565b60405180910390f35b34801561025d57600080fd5b50610278600480360361027391908101906122d2565b61139d565b6040516102859190612a72565b60405180910390f35b34801561029a57600080fd5b506102b560048036036102b091908101906122a9565b6113c8565b6040516102c29190612902565b60405180910390f35b3480156102d757600080fd5b506102f260048036036102ed91908101906122d2565b611668565b6040516102ff91906128e7565b60405180910390f35b34801561031457600080fd5b5061032f600480360361032a91908101906122a9565b6116b3565b60405161033c9190612a72565b60405180910390f35b34801561035157600080fd5b5061036c60048036036103679190810190612392565b6116ff565b6040516103799190612902565b60405180910390f35b34801561038e57600080fd5b506103a960048036036103a49190810190612313565b6117b0565b6040516103b69190612902565b60405180910390f35b3480156103cb57600080fd5b506103e660048036036103e19190810190612392565b61197b565b6040516103f39190612a8d565b60405180910390f35b34801561040857600080fd5b50610423600480360361041e9190810190612392565b611c09565b6040516104309190612a8d565b60405180910390f35b34801561044557600080fd5b50610460600480360361045b91908101906122d2565b611d72565b60405161046d9190612a8d565b60405180910390f35b6000806000905060008090505b600680549050811015610604576104d06005600683815481106104a257fe5b906000526020600020016040516104b991906128d0565b908152602001604051809103902060000185611eed565b156105f7576005600682815481106104e457fe5b906000526020600020016040516104fb91906128d0565b90815260200160405180910390206000808201600061051a919061202c565b60018201600061052a919061202c565b6002820160006101000a81549073ffffffffffffffffffffffffffffffffffffffff02191690556002820160146101000a81549060ff0219169055505060006001820190505b6006805490508110156105db576006818154811061058a57fe5b90600052602060002001600660018303815481106105a457fe5b9060005260206000200190805460018160011615610100020316600290046105cd929190612074565b508080600101915050610570565b5060068054809190600190036105f191906120fb565b50600191505b8080600101915050610483565b5080915050919050565b60608060008061064d60018760405161062791906128b9565b908152602001604051809103902060040160405180602001604052806000815250611eed565b1561084a5760018660405161066291906128b9565b908152602001604051809103902060000160018760405161068391906128b9565b90815260200160405180910390206001016001886040516106a491906128b9565b908152602001604051809103902060020160009054906101000a900460ff166001896040516106d391906128b9565b908152602001604051809103902060020160019054906101000a900473ffffffffffffffffffffffffffffffffffffffff16838054600181600116156101000203166002900480601f01602080910402602001604051908101604052809291908181526020018280546001816001161561010002031660029004801561079a5780601f1061076f5761010080835404028352916020019161079a565b820191906000526020600020905b81548152906001019060200180831161077d57829003601f168201915b50505050509350828054600181600116156101000203166002900480601f0160208091040260200160405190810160405280929190818152602001828054600181600116156101000203166002900480156108365780601f1061080b57610100808354040283529160200191610836565b820191906000526020600020905b81548152906001019060200180831161081957829003601f168201915b505050505092509350935093509350610aac565b61087460018760405161085d91906128b9565b908152602001604051809103902060040186611eed565b15610a715760018660405161088991906128b9565b90815260200160405180910390206000016001876040516108aa91906128b9565b90815260200160405180910390206001016001886040516108cb91906128b9565b908152602001604051809103902060020160009054906101000a900460ff166001896040516108fa91906128b9565b908152602001604051809103902060020160019054906101000a900473ffffffffffffffffffffffffffffffffffffffff16838054600181600116156101000203166002900480601f0160208091040260200160405190810160405280929190818152602001828054600181600116156101000203166002900480156109c15780601f10610996576101008083540402835291602001916109c1565b820191906000526020600020905b8154815290600101906020018083116109a457829003601f168201915b50505050509350828054600181600116156101000203166002900480601f016020809104026020016040519081016040528092919081815260200182805460018160011615610100020316600290048015610a5d5780601f10610a3257610100808354040283529160200191610a5d565b820191906000526020600020905b815481529060010190602001808311610a4057829003601f168201915b505050505092509350935093509350610aac565b6040517f08c379a0000000000000000000000000000000000000000000000000000000008152600401610aa3906129b0565b60405180910390fd5b92959194509250565b600080600783604051610ac891906128b9565b908152602001604051809103902060003373ffffffffffffffffffffffffffffffffffffffff1673ffffffffffffffffffffffffffffffffffffffff1681526020019081526020016000205414610b54576040517f08c379a0000000000000000000000000000000000000000000000000000000008152600401610b4b90612a10565b60405180910390fd5b60008090505b600280549050811015610cb057610b8760028281548110610b7757fe5b9060005260206000200184611eed565b15610ca357600183604051610b9c91906128b9565b9081526020016040518091039020600201600081819054906101000a900460ff168092919060010191906101000a81548160ff021916908360ff16021790555050600480549050600184604051610bf391906128b9565b908152602001604051809103902060020160009054906101000a900460ff1660ff1681610c1c57fe5b04600184604051610c2d91906128b9565b90815260200160405180910390206003018190555042600784604051610c5391906128b9565b908152602001604051809103902060003373ffffffffffffffffffffffffffffffffffffffff1673ffffffffffffffffffffffffffffffffffffffff168152602001908152602001600020819055505b8080600101915050610b5a565b506005600a600184604051610cc591906128b9565b908152602001604051809103902060030154021115610d52576008600183604051610cf091906128b9565b90815260200160405180910390206001019080600181540180825580915050906001820390600052602060002001600090919290919091509080546001816001161561010002031660029004610d47929190612074565b505060019050610d57565b600090505b919050565b60008073ffffffffffffffffffffffffffffffffffffffff16600184604051610d8591906128b9565b908152602001604051809103902060020160019054906101000a900473ffffffffffffffffffffffffffffffffffffffff1673ffffffffffffffffffffffffffffffffffffffff1614610e0d576040517f08c379a0000000000000000000000000000000000000000000000000000000008152600401610e04906129d0565b60405180910390fd5b60011515600583604051610e2191906128b9565b908152602001604051809103902060020160149054906101000a900460ff16151514610e82576040517f08c379a0000000000000000000000000000000000000000000000000000000008152600401610e79906129f0565b60405180910390fd5b82600184604051610e9391906128b9565b90815260200160405180910390206000019080519060200190610eb7929190612127565b5081600184604051610ec991906128b9565b90815260200160405180910390206001019080519060200190610eed929190612127565b5033600184604051610eff91906128b9565b908152602001604051809103902060020160016101000a81548173ffffffffffffffffffffffffffffffffffffffff021916908373ffffffffffffffffffffffffffffffffffffffff1602179055506000600184604051610f6091906128b9565b908152602001604051809103902060020160006101000a81548160ff021916908360ff1602179055506002839080600181540180825580915050906001820390600052602060002001600090919290919091509080519060200190610fc6929190612127565b50506001905092915050565b6000806007600360008573ffffffffffffffffffffffffffffffffffffffff1673ffffffffffffffffffffffffffffffffffffffff16815260200190815260200160002060010160405161102691906128d0565b908152602001604051809103902060003373ffffffffffffffffffffffffffffffffffffffff1673ffffffffffffffffffffffffffffffffffffffff168152602001908152602001600020541461107c57600080fd5b6007600360008473ffffffffffffffffffffffffffffffffffffffff1673ffffffffffffffffffffffffffffffffffffffff1681526020019081526020016000206001016040516110cd91906128d0565b908152602001604051809103902060003373ffffffffffffffffffffffffffffffffffffffff1673ffffffffffffffffffffffffffffffffffffffff16815260200190815260200160002060008154809291906001019190505550600360008373ffffffffffffffffffffffffffffffffffffffff1673ffffffffffffffffffffffffffffffffffffffff1681526020019081526020016000206003016000815480929190600101919050555060019050919050565b61118b6121a7565b600360008373ffffffffffffffffffffffffffffffffffffffff1673ffffffffffffffffffffffffffffffffffffffff1681526020019081526020016000206040518060a00160405290816000820160009054906101000a900473ffffffffffffffffffffffffffffffffffffffff1673ffffffffffffffffffffffffffffffffffffffff1673ffffffffffffffffffffffffffffffffffffffff168152602001600182018054600181600116156101000203166002900480601f0160208091040260200160405190810160405280929190818152602001828054600181600116156101000203166002900480156112c45780601f10611299576101008083540402835291602001916112c4565b820191906000526020600020905b8154815290600101906020018083116112a757829003601f168201915b50505050508152602001600282018054600181600116156101000203166002900480601f0160208091040260200160405190810160405280929190818152602001828054600181600116156101000203166002900480156113665780601f1061133b57610100808354040283529160200191611366565b820191906000526020600020905b81548152906001019060200180831161134957829003601f168201915b50505050508152602001600382015481526020016004820160009054906101000a900460ff1660ff1660ff16815250509050919050565b60006001826040516113af91906128b9565b9081526020016040518091039020600301549050919050565b60008060009054906101000a900473ffffffffffffffffffffffffffffffffffffffff1673ffffffffffffffffffffffffffffffffffffffff163373ffffffffffffffffffffffffffffffffffffffff1614611459576040517f08c379a000000000000000000000000000000000000000000000000000000000815260040161145090612970565b60405180910390fd5b60008090505b60048054905081101561165d578273ffffffffffffffffffffffffffffffffffffffff166004828154811061149057fe5b9060005260206000200160009054906101000a900473ffffffffffffffffffffffffffffffffffffffff1673ffffffffffffffffffffffffffffffffffffffff16141561165057600360008473ffffffffffffffffffffffffffffffffffffffff1673ffffffffffffffffffffffffffffffffffffffff168152602001908152602001600020600080820160006101000a81549073ffffffffffffffffffffffffffffffffffffffff021916905560018201600061154e919061202c565b60028201600061155e919061202c565b60038201600090556004820160006101000a81549060ff0219169055505060006001820190505b60048054905081101561162f576004818154811061159f57fe5b9060005260206000200160009054906101000a900473ffffffffffffffffffffffffffffffffffffffff16600460018303815481106115da57fe5b9060005260206000200160006101000a81548173ffffffffffffffffffffffffffffffffffffffff021916908373ffffffffffffffffffffffffffffffffffffffff1602179055508080600101915050611585565b50600280548091906001900361164591906120fb565b506001915050611663565b808060010191505061145f565b50600090505b919050565b600060018260405161167a91906128b9565b908152602001604051809103902060020160019054906101000a900473ffffffffffffffffffffffffffffffffffffffff169050919050565b6000600360008373ffffffffffffffffffffffffffffffffffffffff1673ffffffffffffffffffffffffffffffffffffffff168152602001908152602001600020600301549050919050565b600061172b60018460405161171491906128b9565b908152602001604051809103902060000184611eed565b1561176f578160018460405161174191906128b9565b90815260200160405180910390206004019080519060200190611765929190612127565b50600190506117aa565b6040517f08c379a00000000000000000000000000000000000000000000000000000000081526004016117a190612990565b60405180910390fd5b92915050565b60008060009054906101000a900473ffffffffffffffffffffffffffffffffffffffff1673ffffffffffffffffffffffffffffffffffffffff163373ffffffffffffffffffffffffffffffffffffffff1614611841576040517f08c379a000000000000000000000000000000000000000000000000000000000815260040161183890612970565b60405180910390fd5b83600360008573ffffffffffffffffffffffffffffffffffffffff1673ffffffffffffffffffffffffffffffffffffffff1681526020019081526020016000206001019080519060200190611897929190612127565b5082600360008573ffffffffffffffffffffffffffffffffffffffff1673ffffffffffffffffffffffffffffffffffffffff16815260200190815260200160002060000160006101000a81548173ffffffffffffffffffffffffffffffffffffffff021916908373ffffffffffffffffffffffffffffffffffffffff16021790555081600360008573ffffffffffffffffffffffffffffffffffffffff1673ffffffffffffffffffffffffffffffffffffffff168152602001908152602001600020600201908051906020019061196f929190612127565b50600190509392505050565b60008073ffffffffffffffffffffffffffffffffffffffff166005836040516119a491906128b9565b908152602001604051809103902060020160009054906101000a900473ffffffffffffffffffffffffffffffffffffffff1673ffffffffffffffffffffffffffffffffffffffff1614611a2c576040517f08c379a0000000000000000000000000000000000000000000000000000000008152600401611a2390612a30565b60405180910390fd5b81600583604051611a3d91906128b9565b90815260200160405180910390206001019080519060200190611a61929190612127565b5082600583604051611a7391906128b9565b90815260200160405180910390206000019080519060200190611a97929190612127565b5033600583604051611aa991906128b9565b908152602001604051809103902060020160006101000a81548173ffffffffffffffffffffffffffffffffffffffff021916908373ffffffffffffffffffffffffffffffffffffffff1602179055506005600a600360003373ffffffffffffffffffffffffffffffffffffffff1673ffffffffffffffffffffffffffffffffffffffff16815260200190815260200160002060030154021015611b85576001600583604051611b5891906128b9565b908152602001604051809103902060020160146101000a81548160ff021916908315150217905550611bc0565b6000600583604051611b9791906128b9565b908152602001604051809103902060020160146101000a81548160ff0219169083151502179055505b6006829080600181540180825580915050906001820390600052602060002001600090919290919091509080519060200190611bfd929190612127565b50506001905092915050565b600080600090505b600280549050811015611d6657611c3e60028281548110611c2e57fe5b9060005260206000200185611eed565b15611d595760008090505b600880549050811015611cac57611c7660088381548110611c6657fe5b9060005260206000200186611eed565b15611c9f5760088281548110611c8857fe5b906000526020600020016000611c9e919061202c565b5b8080600101915050611c49565b506000600185604051611cbf91906128b9565b908152602001604051809103902060020160006101000a81548160ff021916908360ff1602179055506000600185604051611cfa91906128b9565b90815260200160405180910390206003018190555082600185604051611d2091906128b9565b90815260200160405180910390206001019080519060200190611d44929190612127565b50611d4e84610ab5565b506001915050611d6c565b8080600101915050611c11565b50600090505b92915050565b600080600090505b600280549050811015611ee257611da760028281548110611d9757fe5b9060005260206000200184611eed565b15611ed557600183604051611dbc91906128b9565b908152602001604051809103902060008082016000611ddb919061202c565b600182016000611deb919061202c565b6002820160006101000a81549060ff02191690556002820160016101000a81549073ffffffffffffffffffffffffffffffffffffffff02191690556003820160009055600482016000611e3e919061202c565b505060006001820190505b600280549050811015611eb45760028181548110611e6357fe5b9060005260206000200160026001830381548110611e7d57fe5b906000526020600020019080546001816001161561010002031660029004611ea6929190612074565b508080600101915050611e49565b506002805480919060019003611eca91906120fb565b506001915050611ee8565b8080600101915050611d7a565b50600090505b919050565b600080839050606083905080518280546001816001161561010002031660029004905014611f2057600092505050612026565b60008090505b8280546001816001161561010002031660029004905081101561201e57818181518110611f4f57fe5b602001015160f81c60f81b7effffffffffffffffffffffffffffffffffffffffffffffffffffffffffffff19168382815460018160011615610100020316600290048110611f9957fe5b815460011615611fb85790600052602060002090602091828204019190065b9054901a7f0100000000000000000000000000000000000000000000000000000000000000027effffffffffffffffffffffffffffffffffffffffffffffffffffffffffffff1916146120115760009350505050612026565b8080600101915050611f26565b506001925050505b92915050565b50805460018160011615610100020316600290046000825580601f106120525750612071565b601f01602090049060005260206000209081019061207091906121ef565b5b50565b828054600181600116156101000203166002900490600052602060002090601f016020900481019282601f106120ad57805485556120ea565b828001600101855582156120ea57600052602060002091601f016020900482015b828111156120e95782548255916001019190600101906120ce565b5b5090506120f791906121ef565b5090565b815481835581811115612122578183600052602060002091820191016121219190612214565b5b505050565b828054600181600116156101000203166002900490600052602060002090601f016020900481019282601f1061216857805160ff1916838001178555612196565b82800160010185558215612196579182015b8281111561219557825182559160200191906001019061217a565b5b5090506121a391906121ef565b5090565b6040518060a00160405280600073ffffffffffffffffffffffffffffffffffffffff168152602001606081526020016060815260200160008152602001600060ff1681525090565b61221191905b8082111561220d5760008160009055506001016121f5565b5090565b90565b61223d91905b808211156122395760008181612230919061202c565b5060010161221a565b5090565b90565b60008135905061224f81612c01565b92915050565b600082601f83011261226657600080fd5b813561227961227482612ad5565b612aa8565b9150808252602083016020830185838301111561229557600080fd5b6122a0838284612bae565b50505092915050565b6000602082840312156122bb57600080fd5b60006122c984828501612240565b91505092915050565b6000602082840312156122e457600080fd5b600082013567ffffffffffffffff8111156122fe57600080fd5b61230a84828501612255565b91505092915050565b60008060006060848603121561232857600080fd5b600084013567ffffffffffffffff81111561234257600080fd5b61234e86828701612255565b935050602061235f86828701612240565b925050604084013567ffffffffffffffff81111561237c57600080fd5b61238886828701612255565b9150509250925092565b600080604083850312156123a557600080fd5b600083013567ffffffffffffffff8111156123bf57600080fd5b6123cb85828601612255565b925050602083013567ffffffffffffffff8111156123e857600080fd5b6123f485828601612255565b9150509250929050565b61240781612b59565b82525050565b61241681612b59565b82525050565b61242581612b6b565b82525050565b600061243682612b21565b6124408185612b3d565b9350612450818560208601612bbd565b61245981612bf0565b840191505092915050565b600061246f82612b21565b6124798185612b4e565b9350612489818560208601612bbd565b80840191505092915050565b60006124a082612b16565b6124aa8185612b2c565b93506124ba818560208601612bbd565b6124c381612bf0565b840191505092915050565b6000815460018116600081146124eb576001811461251057612554565b607f60028304166124fc8187612b4e565b955060ff1983168652808601935050612554565b6002820461251e8187612b4e565b955061252985612b01565b60005b8281101561254b5781548189015260018201915060208101905061252c565b82880195505050505b505092915050565b6000612569602383612b3d565b91507f4f6e6c792041646d696e2063616e2063616c6c20746869732066756e6374696f60008301527f6e212100000000000000000000000000000000000000000000000000000000006020830152604082019050919050565b60006125cf601783612b3d565b91507f5573657220446f6573206e6f74206578736973742121200000000000000000006000830152602082019050919050565b600061260f603c83612b3d565b91507f506c656173652070726f7669646520636f72726563742070617373776f72642060008301527f746f20766965772074686520637573746f6d65722064657461696c73000000006020830152604082019050919050565b6000612675605683612b3d565b91507f5468697320637573746f6d657220697320616c72656164792070726573656e7460008301527f2c20706c656173652063616c6c206d6f64696679437573746f6d657220746f2060208301527f656469742074686520637573746f6d65722064617461000000000000000000006040830152606082019050919050565b6000612701601383612b3d565b91507f42616e6b206973206e6f742074727573746564000000000000000000000000006000830152602082019050919050565b6000612741602c83612b3d565b91507f74686520757365722068617320616c726561647920616e207570766f7465206660008301527f726f6d207468652062616e6b00000000000000000000000000000000000000006020830152604082019050919050565b60006127a7603e83612b3d565b91507f54686973207573657220616c7265616479206861732061204b5943207265717560008301527f65737420776974682073616d65206461746120696e2070726f636573732e00006020830152604082019050919050565b600060a08301600083015161281860008601826123fe565b50602083015184820360208601526128308282612495565b9150506040830151848203604086015261284a8282612495565b915050606083015161285f606086018261287d565b506080830151612872608086018261289b565b508091505092915050565b61288681612b97565b82525050565b61289581612b97565b82525050565b6128a481612ba1565b82525050565b6128b381612ba1565b82525050565b60006128c58284612464565b915081905092915050565b60006128dc82846124ce565b915081905092915050565b60006020820190506128fc600083018461240d565b92915050565b6000602082019050612917600083018461241c565b92915050565b60006080820190508181036000830152612937818761242b565b9050818103602083015261294b818661242b565b905061295a60408301856128aa565b612967606083018461240d565b95945050505050565b600060208201905081810360008301526129898161255c565b9050919050565b600060208201905081810360008301526129a9816125c2565b9050919050565b600060208201905081810360008301526129c981612602565b9050919050565b600060208201905081810360008301526129e981612668565b9050919050565b60006020820190508181036000830152612a09816126f4565b9050919050565b60006020820190508181036000830152612a2981612734565b9050919050565b60006020820190508181036000830152612a498161279a565b9050919050565b60006020820190508181036000830152612a6a8184612800565b905092915050565b6000602082019050612a87600083018461288c565b92915050565b6000602082019050612aa260008301846128aa565b92915050565b6000604051905081810181811067ffffffffffffffff82111715612acb57600080fd5b8060405250919050565b600067ffffffffffffffff821115612aec57600080fd5b601f19601f8301169050602081019050919050565b60008190508160005260206000209050919050565b600081519050919050565b600081519050919050565b600082825260208201905092915050565b600082825260208201905092915050565b600081905092915050565b6000612b6482612b77565b9050919050565b60008115159050919050565b600073ffffffffffffffffffffffffffffffffffffffff82169050919050565b6000819050919050565b600060ff82169050919050565b82818337600083830152505050565b60005b83811015612bdb578082015181840152602081019050612bc0565b83811115612bea576000848401525b50505050565b6000601f19601f8301169050919050565b612c0a81612b59565b8114612c1557600080fd5b5056fea365627a7a7231582027ffdbe660ed124df6de5cf3aeccd358b8d431c52e80f479375372f105f9bc1b6c6578706572696d656e74616cf564736f6c63430005100040",
  "source": "pragma solidity ^0.5.9;\npragma experimental ABIEncoderV2;\n//pragma experimental SMTChecker;\ncontract kyc {\n\n\n    address admin;\n\n    /*\n    Struct for a customer\n     */\n    struct Customer {\n        string userName;   //unique\n        string data_hash;  //unique\n        uint8 upvotes;\n        address bank;\n        uint rating;\n        string password;\n    }\n\n    /*\n    Struct for a Bank\n     */\n    struct Bank {\n        address ethAddress;   //unique\n        string bankName;\n        string regNumber;       //unique\n        uint rating;\n        uint8 KYC_count;\n    }\n\n    /*\n    Struct for a KYC Request\n     */\n    struct KYCRequest {\n        string userName;\n        string data_hash;  //unique\n        address bank;\n        bool isAllowed;\n    }\n\n    /*\n    Mapping a customer's username to the Customer struct\n    We also keep an array of all keys of the mapping to be able to loop through them when required.\n     */\n    mapping(string => Customer) customers;\n    string[] customerNames;\n\n    /*\n    Mapping a bank's address to the Bank Struct\n    We also keep an array of all keys of the mapping to be able to loop through them when required.\n     */\n    mapping(address => Bank) banks;\n    address[] bankAddresses;\n\n    /*\n    Mapping a customer's Data Hash to KYC request captured for that customer.\n    This mapping is used to keep track of every kycRequest initiated for every customer by a bank.\n     */\n    mapping(string => KYCRequest) kycRequests;\n    string[] customerDataList;\n\n    /*\n    Mapping a customer's user name with a bank's address\n    This mapping is used to keep track of every upvote given by a bank to a customer\n     */\n    mapping(string => mapping(address => uint256)) upvotes;\n\n    /*\n    Final Customer List\n    */\n    string[] final_customerList;\n    /**\n     * Constructor of the contract.\n     * We save the contract's admin as the account which deployed this contract.\n     */\n    constructor() public {\n        admin = msg.sender;\n    }\n\n    /**\n     * Record a new KYC request on behalf of a customer\n     * The sender of message call is the bank itself\n     * @param  {string} _userName The name of the customer for whom KYC is to be done\n     * @param  {address} _bankEthAddress The ethAddress of the bank issuing this request\n     * @return {bool}        True if this function execution was successful\n     */\n    function addKycRequest(string memory _userName, string memory _customerData) public returns (uint8) {\n        // Check that the user's KYC has not been done before, the Bank is a valid bank and it is allowed to perform KYC.\n        require(kycRequests[_customerData].bank == address(0), \"This user already has a KYC request with same data in process.\");\n        //bytes memory uname = new bytes(bytes(_userName));\n        // Save the timestamp for this KYC request.\n        //ufixed8x2 value= 5 /100;\n        kycRequests[_customerData].data_hash = _customerData;\n        kycRequests[_customerData].userName = _userName;\n        kycRequests[_customerData].bank = msg.sender;\n        if((banks[msg.sender].rating * 10)< (0.5 * 10)){\n            kycRequests[_customerData].isAllowed = true;\n        }else{\n            kycRequests[_customerData].isAllowed = false;\n        }\n        customerDataList.push(_customerData);\n        return 1;\n    }\n\n    /**\n     * Add a new customer\n     * @param {string} _userName Name of the customer to be added\n     * @param {string} _hash Hash of the customer's ID submitted for KYC\n     */\n    function addCustomer(string memory _userName, string memory _customerData) public returns (uint8) {\n        require(customers[_userName].bank == address(0), \"This customer is already present, please call modifyCustomer to edit the customer data\");\n        require(kycRequests[_customerData].isAllowed == true,\"Bank is not trusted\");\n        customers[_userName].userName = _userName;\n        customers[_userName].data_hash = _customerData;\n        customers[_userName].bank = msg.sender;\n        customers[_userName].upvotes = 0;\n        customerNames.push(_userName);\n        return 1;\n    }\n\n    /**\n     * Remove KYC request\n     * @param  {string} _userName Name of the customer\n     * @return {uint8}         A 0 indicates failure, 1 indicates success\n     */\n    function removeKYCRequest(string memory _userName) public returns (uint8) {\n        uint8 x = 0;\n        for (uint i = 0; i< customerDataList.length; i++) {\n            if (stringsEquals(kycRequests[customerDataList[i]].userName,_userName)) {\n                delete kycRequests[customerDataList[i]];\n                for(uint j = i+1;j < customerDataList.length;j++)\n                {\n                    customerDataList[j-1] = customerDataList[j];\n                }\n                customerDataList.length --;\n                x=1;\n            }\n        }\n        return x; // 0 is returned if no request with the input username is found.\n    }\n\n    /**\n     * Remove customer information\n     * @param  {string} _userName Name of the customer\n     * @return {uint8}         A 0 indicates failure, 1 indicates success\n     */\n    function removeCustomer(string memory _userName) public returns (uint8) {\n            for(uint i = 0;i < customerNames.length;i++)\n            {\n                if(stringsEquals(customerNames[i],_userName))\n                {\n                    delete customers[_userName];\n                    for(uint j = i+1;j < customerNames.length;j++)\n                    {\n                        customerNames[j-1] = customerNames[j];\n                    }\n                    customerNames.length--;\n                    return 1;\n                }\n\n            }\n            return 0;\n    }\n\n    /**\n     * Edit customer information\n     * @param  {public} _userName Name of the customer\n     * @param  {public} _hash New hash of the updated ID provided by the customer\n     * @return {uint8}         A 0 indicates failure, 1 indicates success\n     */\n    function modifyCustomer(string memory _userName, string memory _newcustomerData) public returns (uint8) {\n        for(uint i = 0;i < customerNames.length;i++)\n            {\n                if(stringsEquals(customerNames[i],_userName))\n                {\n                    for(uint j=0; j<final_customerList.length ; j++){\n                        if(stringsEquals(final_customerList[i],_userName)){\n                            delete final_customerList[i];\n                        }\n                    }\n                    customers[_userName].upvotes = 0;\n                    customers[_userName].rating = 0;\n                    customers[_userName].data_hash = _newcustomerData;\n                    Upvote(_userName);\n                    return 1;\n                }\n\n            }\n            return 0;\n    }\n\n    /**\n     * View customer information\n     * @param  {public} _userName Name of the customer\n     * @return {Customer}         The customer struct as an object\n     */\n    function viewCustomer(string memory _userName, string memory _password) public view returns (string memory, string memory, uint8, address) {\n        if(stringsEquals(customers[_userName].password,\"\")){\n            //return if password is null means password is not set fot his customer.\n            return (customers[_userName].userName, customers[_userName].data_hash, customers[_userName].upvotes, customers[_userName].bank);\n        }else{\n            if(stringsEquals(customers[_userName].password,_password)){//check if password matches with the given\n                return (customers[_userName].userName, customers[_userName].data_hash, customers[_userName].upvotes, customers[_userName].bank);\n            }else{\n            revert(\"Please provide correct password to view the customer details\");\n            }\n        }\n    }\n\n    /**\n     * Add a new upvote from a bank\n     * @param {public} _userName Name of the customer to be upvoted\n     */\n    function Upvote(string memory _userName) public payable returns (uint8) {\n        require(upvotes[_userName][msg.sender] == 0,\"the user has already an upvote from the bank\");\n        for(uint i = 0;i < customerNames.length;i++)\n            {\n                if(stringsEquals(customerNames[i],_userName))\n                {\n                    customers[_userName].upvotes++;\n                    customers[_userName].rating = customers[_userName].upvotes/bankAddresses.length;\n                    upvotes[_userName][msg.sender] = now;//storing the timestamp when vote was casted, not required though, additional\n\n                }\n\n            }\n        if((customers[_userName].rating * 10) > (0.5 * 10)){\n            final_customerList.push(customers[_userName].data_hash);\n            return 1;\n        }else{\n            return 0;\n        }\n    }\n\n    /*Function to view bank\n    function getBankRequests(address _bankAddress) public returns(address[] memory){\n        for(uint i=0;i< customerDataList.length ; i++){\n            if(kycRequests[customerDataList[i]].bank == _bankAddress && kycRequests[customerDataList[i]].isAllowed == false){\n                address[] memory kycReq;\n                kycReq.push(customerDataList[i]);\n            }\n        }\n        return kycRequests;\n\n    }*/\n\n    //To upvote the bank by a bank or admin\n    function toUpvoteBank(address _bankAddress) public returns(uint8){\n        require(upvotes[banks[_bankAddress].bankName][msg.sender] == 0);\n        upvotes[banks[_bankAddress].bankName][msg.sender] ++;\n        banks[_bankAddress].rating++;\n        return 1;\n    }\n\n    //To get a particular customer rating\n    function getCustomerRating(string memory _userName) public view returns(uint256){\n        return customers[_userName].rating;\n    }\n\n    //To return the bank rating of a particular bank\n    function getBankRating(address _bankAddress) public view returns(uint256){\n        return banks[_bankAddress].rating;\n    }\n\n    //To get Details of bank which updated the recent detail of a particular customer passed in the Params\n    function getLastBankDetails(string memory _userName) public view returns(address){\n        return customers[_userName].bank;\n    }\n\n    //sets a password for a particular customer data hash\n    function setPassword(string memory _userName,string memory _password) public returns(bool){\n        if(stringsEquals(customers[_userName].userName,_userName)){\n            customers[_userName].password = _password;\n            return true;\n        }else{\n            revert(\"User Does not exsist!! \");\n            //return false;\n        }\n    }\n\n    //Gives the bank details by providing bank address of a particular bank\n    function getBank(address _bankAddress) public view returns(Bank memory){\n        return banks[_bankAddress];\n    }\n\n    //Admin Functions are declared here.\n\n    //Admin can add bank using this function.\n    // @Params - Bank name and registration  number as string.\n    // @Params - Bank ethereum address as address type.\n    // @return - a flag is returned as bool value : True means bank is added and false means something is faulty.\n    function addBank(string memory _bankName,address _bankAddress,string memory _regNumber) public returns(bool){\n        require(msg.sender == admin,\"Only Admin can call this function!!\");\n        banks[_bankAddress].bankName = _bankName;\n        banks[_bankAddress].ethAddress = _bankAddress;\n        banks[_bankAddress].regNumber = _regNumber;\n        return true;\n    }\n\n    //Function used by Admin to remove a bank.\n    //@Params - Bank address is taken as it is unique for every bank.\n    //@return - a flag is returned as bool value : True means task completd successfully and false means something is faulty\n    function removeBank(address _bankAddress) public returns(bool){\n        require(msg.sender == admin,\"Only Admin can call this function!!\");\n        for(uint i = 0;i < bankAddresses.length;i++)\n            {\n                if(bankAddresses[i]== _bankAddress)\n                {\n                    delete banks[_bankAddress];\n                    for(uint j = i+1;j < bankAddresses.length;j++)\n                    {\n                        bankAddresses[j-1] = bankAddresses[j];\n                    }\n                    customerNames.length--;\n                    return true;\n                }\n\n            }\n            return false;\n    }\n// if you are using string, you can use the following function to compare two strings\n// function to compare two string value\n// This is an internal fucntion to compare string values\n// @Params - String a and String b are passed as Parameters\n// @return - This function returns true if strings are matched and false if the strings are not matching\n    function stringsEquals(string storage _a, string memory _b) internal view returns (bool) {\n        bytes storage a = bytes(_a);\n        bytes memory b = bytes(_b);\n        if (a.length != b.length)\n            return false;\n        // @todo unroll this loop\n        for (uint i = 0; i < a.length; i ++)\n        {\n            if (a[i] != b[i])\n                return false;\n        }\n        return true;\n    }\n\n}\n",
  "sourcePath": "/home/harshil/KYC-SC/contracts/KYCContract.sol",
  "compiler": {
    "name": "solc",
    "version": "0.5.16+commit.9c3226ce.Emscripten.clang"
  },
  "schemaVersion": "3.0.23",
  "updatedAt": "2020-02-10T12:37:46.900Z",
  "devdoc": {
    "methods": {
      "Upvote(string)": {
        "params": {
          "": "{public} _userName Name of the customer to be upvoted"
        }
      },
      "addCustomer(string,string)": {
        "params": {
          "": "{string} _hash Hash of the customer's ID submitted for KYC"
        }
      },
      "addKycRequest(string,string)": {
        "params": {
          "": "{address} _bankEthAddress The ethAddress of the bank issuing this request"
        },
        "return": "{bool}        True if this function execution was successful"
      },
      "modifyCustomer(string,string)": {
        "params": {
          "": "{public} _hash New hash of the updated ID provided by the customer"
        },
        "return": "{uint8}         A 0 indicates failure, 1 indicates success"
      },
      "removeCustomer(string)": {
        "params": {
          "": "{string} _userName Name of the customer"
        },
        "return": "{uint8}         A 0 indicates failure, 1 indicates success"
      },
      "removeKYCRequest(string)": {
        "params": {
          "": "{string} _userName Name of the customer"
        },
        "return": "{uint8}         A 0 indicates failure, 1 indicates success"
      },
      "viewCustomer(string,string)": {
        "params": {
          "": "{public} _userName Name of the customer"
        },
        "return": "{Customer}         The customer struct as an object"
      }
    }
  },
  "userdoc": {
    "methods": {
      "Upvote(string)": {
        "notice": "Add a new upvote from a bank"
      },
      "addCustomer(string,string)": {
        "notice": "Add a new customer"
      },
      "addKycRequest(string,string)": {
        "notice": "Record a new KYC request on behalf of a customer The sender of message call is the bank itself"
      },
      "constructor": "Constructor of the contract. We save the contract's admin as the account which deployed this contract.",
      "modifyCustomer(string,string)": {
        "notice": "Edit customer information"
      },
      "removeCustomer(string)": {
        "notice": "Remove customer information"
      },
      "removeKYCRequest(string)": {
        "notice": "Remove KYC request"
      },
      "viewCustomer(string,string)": {
        "notice": "View customer information"
      }
    }
  }
}